:020000040800F2
:10000000B0120020C51E0008F10C0008F30C000817
:10001000F70C0008FB0C0008FF0C000800000000B3
:10002000000000000000000000000000050D0008B6
:10003000030D000800000000070D0008090D00086E
:10004000DF1E0008DF1E0008DF1E0008DF1E00089C
:10005000DF1E0008DF1E0008230D0008DF1E000859
:10006000DF1E0008DF1E0008DF1E0008DF1E00087C
:10007000DF1E0008DF1E0008DF1E0008DF1E00086C
:10008000DF1E0008DF1E0008DF1E0008DF1E00085C
:10009000DF1E0008DF1E0008DF1E0008070E000834
:1000A000DF1E0008DF1E0008DF1E0008DF1E00083C
:1000B000130F0008990F0008DF1E0008DF1E00085C
:1000C000DF1E0008DF1E0008DF1E0008DF1E00081C
:1000D000DF1E0008D90F0008DF1E0008DF1E000821
:1000E000DF1E0008DF1E0008DF1E0008DF1E0008FC
:1000F000DF1E0008DF1E0008DF1E0008DF1E0008EC
:10010000DF1E0008DF1E0008DF1E0008DF1E0008DB
:10011000DF1E0008DF1E0008DF1E0008DF1E0008CB
:10012000DF1E0008DF1E0008DF1E0008DF1E0008BB
:1001300000F002F800F03EF80AA090E8000C8244BB
:100140008344AAF10107DA4501D100F033F8AFF298
:10015000090EBAE80F0013F0010F18BFFB1A43F0A5
:1001600001031847AC430000CC430000103A24BF01
:1001700078C878C1FAD8520724BF30C830C144BF0C
:1001800004680C607047000000230024002500264E
:10019000103A28BF78C1FBD8520728BF30C148BFEA
:1001A0000B6070471FB5AFF3008004F0C1F81FBDAE
:1001B00010B510BD04F019F91146FFF7F3FF00F078
:1001C00007F804F037F9FFF7F3FF04F03FF90000F8
:1001D00010B500F07AFB0A2000F09CFB01200449D6
:1001E000087003E001F036FB00F082FCFAE7000043
:1001F0000700002010B50020FA490870FA4908707D
:10020000FA490870FA490870FA48FB490860FB4847
:10021000FB49086000240AE00020FA490855FA4921
:10022000085504F12000F9490855601CC4B2202C7F
:10023000F2DB0020F6490870F6490870F6490870AC
:10024000F6490880EE4909680870ED4800683030CA
:10025000EB490968486000240AE00021E84800688A
:1002600009300155E44800680E300155601CC4B2E5
:10027000062CF2DB0021E24800688173002419E0BB
:10028000DF48006830300455DD48006835300455DB
:10029000DB4800683A300455D94800683F300455BF
:1002A000D748006844300455D548006849300455A3
:1002B000601CC4B2052CE3DBD949087904F024F8AA
:1002C00010BD00B587B047F61220ADF814004FF40A
:1002D0009050ADF810000020ADF81600ADF81200F7
:1002E00004A94FF0804003F0AFFA1020ADF80000F1
:1002F0000020ADF8020040F21A60ADF806000220BE
:10030000ADF808006946400703F0DBFA00214FF022
:10031000804003F070FE0020ADF8020042F29F40E2
:10032000ADF8060069464FF0804003F00CFB002159
:100330004FF0804003F067FE0020ADF8020043F666
:100340000950ADF806006946800703F045FB00211F
:100350004FF0804003F061FE0020ADF8020046F24D
:10036000A810ADF806006946C00603F07CFB00212A
:100370004FF0804003F059FE1F214FF0804003F002
:10038000ABFF01221F21900703F027FD0121880701
:1003900003F008FD07B000BD0EB5A24803F080F9D8
:1003A00043F60950ADF804004FF49050ADF800004A
:1003B0000020ADF80600ADF802006946994803F048
:1003C00043FA0121974803F087FF0122114695481F
:1003D00003F003FD0121934803F0E4FC0EBD00B5DA
:1003E00085B0914802F058FF904802F055FF9048C0
:1003F00002F052FF8F4802F04FFF4FF4E1300090BF
:100400000020ADF80400ADF80600ADF80800ADF826
:100410000C000C20ADF80A000121880302F0C0FB9B
:100420000121480402F0C9FB0121C80402F0C5FB08
:100430000121080502F0C1FB4FF40070ADF8100077
:1004400003208DF8120018208DF8130004A97A48B3
:1004500002F068FC4FF48060ADF8100004208DF8C5
:10046000130004A9744802F05DFC0420ADF81000EC
:1004700003208DF8120018208DF8130004A96E488F
:1004800002F050FC0820ADF8100004208DF8130095
:1004900004A9694802F046FC4FF48060ADF81000F2
:1004A00003208DF8120018208DF8130004A963486A
:1004B00002F038FC4FF40060ADF8100004208DF815
:1004C000130004A95D4802F02DFC4FF48050ADF8F4
:1004D000100003208DF8120018208DF8130004A9D5
:1004E000564802F01FFC0420ADF810008DF81300F0
:1004F00004A9534802F016FC69464B4802F00FFF6E
:1005000069464A4802F00BFF6946494802F007FF76
:100510006946484802F003FF0121434802F08AFF80
:100520000121424802F086FF0121414802F082FF8A
:100530000121404802F07EFF012240F225513A4855
:1005400002F084FF05B000BD08B54FF4A06001F0D3
:10055000D9FC17208DF8000001208DF80100002043
:100560008DF8020001208DF80300684601F0CFFCF1
:1005700006208DF8000001208DF801008DF80200A2
:100580008DF80300684601F0C2FC25208DF80000BC
:1005900003208DF8010001208DF802008DF8030082
:1005A000684601F0B4FC1D208DF8000002208DF893
:1005B000010000208DF8020001208DF8030068463C
:1005C00001F0A5FC1C208DF8000002208DF8010030
:1005D00001208DF802008DF80300684601F097FCB9
:1005E00008BD0000080000200700002009000020CE
:1005F0000A000020F40A0020A8000020080B0020B8
:10060000EC000020400100206001002020010020BB
:10061000E3000020E6000020E7000020E8000020C2
:10062000BB000020000400400038014000440040AE
:10063000004C004000500040000801400010014004
:100640000014014000B585B00021AA4802F082F8EC
:100650000021A94802F07EF80020ADF800004FF418
:100660008270ADF802000020ADF80400ADF806007D
:10067000ADF808004FF40070ADF80A002020ADF886
:100680000C000020ADF80E000720ADF8100001218D
:10069000080302F085FA0121880302F08EFA694608
:1006A000944801F0B7FF6946934801F0B3FF012178
:1006B000904802F04FF801218F4802F04BF805B046
:1006C00000BD00204FF0E02188610520086148202E
:1006D000486170470EB5E020ADF8080003208DF8A2
:1006E0000A0018208DF80B0002A9844802F01AFBBA
:1006F0004FF46040ADF8080018208DF80B0002A9F7
:100700007F4802F00FFB0620ADF8080010208DF89E
:100710000B0002A97B4802F005FBC020ADF80800E1
:1007200010208DF80B0002A9764802F0FBFA7548FC
:10073000C06820F008007349C8600846C06820F40B
:100740000070C8600820ADF8080014208DF80B0078
:1007500002A96C4802F0E6FA41F2883000F0F2F8A3
:100760004FF40070ADF8080014208DF80B0002A9BA
:10077000644802F0D7FA40F20110ADF808004820B2
:100780008DF80B0002A95F4802F0CCFA3020ADF8DA
:10079000080010208DF80B0003208DF80A0002A934
:1007A000584802F0BFFA4FF48070ADF808001020EE
:1007B0008DF80B0003208DF80A0002A94F4802F0C3
:1007C000B1FA5048C06840F010004E49C860084671
:1007D000C06840F02000C86048480C30006840F411
:1007E00080704949C1F80C080320ADF808001020BA
:1007F0008DF80B0003208DF80A0002A9404802F092
:1008000091FA4148D0F80C0C20F001003E49C1F8A3
:100810000C0C0846D0F80C0C20F00200C1F80C0CAF
:100820000021022002F08DFB0821022002F089FB4A
:1008300040F20110009000208DF804000C208DF88B
:10084000050001208DF80600684602F09DFC2F4847
:100850002F4908600EBD10B502F03CF84FF480300F
:1008600002F058F802F095F80446012C24D110202B
:1008700001F0CBFB022001F0B5FB002002F0C8F82C
:10088000A00202F0D5F8A00202F0CAF84FF4E0117D
:10089000200402F0A2F8012002F0AAF800BF3920DB
:1008A00002F05BF80028FAD0022002F0A4F800BFA2
:1008B00002F0A9F80828FBD101211D2002F070F9EF
:1008C0000121032002F079F910BD10B5FFF7C3FF35
:1008D000FFF700FFFFF7F5FEFFF7B4FEFFF734FE6A
:1008E000FFF77DFDFFF758FDFFF7EBFCFFF782FCFC
:1008F00010BD0000003001400038004000080140F9
:10090000000C01400010014000000140FFFF0F00FB
:10091000140401404FF0E021096941F007014FF054
:10092000E02211613749086000BF36490968002993
:10093000FBD14FF0E021096901F0FD014FF0E02209
:100940001161704701E0411E88B20028FBD1704759
:1009500010B5034607E018780C78A04201D00020BB
:1009600010BD5B1C491C1000A2F10104A2B2F2D11F
:100970000120F5E730B503460020002206E09D5C2B
:10098000541C05FB0404A0B2541CA2B28A42F6DB3C
:1009900030BDF0B50024002301E0651CECB2055D1C
:1009A000002DFAD107E01D465E1CF3B24F5D2546CF
:1009B000661CF4B247559342F5DB00250555F0BDA2
:1009C00010B502460020114601E0431C98B219B14F
:1009D00011F8014B002CF8D110BD0B4800880A21FA
:1009E00090FBF1F00949096801EB4102C2EBC1112A
:1009F00000EBC10070470246914201D200207047CF
:100A0000881AFCE7700000202404004050000020F9
:100A10002DE9F041A4480078002867D0A348057864
:100A200060E0A348405D23285AD12E460EE0A0483E
:100A3000805D0A2808D19C480078401E9A490870B9
:100A4000701C9A49087005E0701CC6B2994800787D
:100A50008642ECDB00BF96492944481C0321FFF77E
:100A600089FF04462046B4F5D97F04D0A0F5407034
:100A7000153816D109E090480078042804D18C4933
:100A80002944481D00F0CBFC10E08B480078042876
:100A900006D1701B82B286484119884800F006FBD7
:100AA00004E08749854800F012FB00BF00BF7E4884
:100AB000007820B17F480078B0F5A07F09DB0027DF
:100AC00004E000207A49C855781CC7B2B7F5A07F6A
:100AD000F7DB00207749087074490870794908707D
:100AE000681CC5B27348007885429ADBBDE8F08186
:100AF0002DE9F0414FF4FA60FFF724FF072001F0E1
:100B0000CCF8714908700846007810F0400F5FD0AB
:100B10004FF47A70FFF716FF01206C4908706C489B
:100B20000088401C6A4908806A48406940F04000DB
:100B30006849486120226849612001F0C5F8FF2119
:100B4000272000F045FF072001F0A7F80021E22050
:100B500000F03EFF0021E12000F03AFF172001F0F5
:100B60009CF85C48006940F040005A4908615B48C5
:100B7000007850BB002726E05748C05D5849594AC5
:100B800012788854084657490978405C0A280BD1E6
:100B900054480078401E5249085C0D2804D1524840
:100BA0000078401C504908704E480078401C4D4960
:100BB000087008460078B0F5A07F02DB01204749A5
:100BC0000870781C87B2202FD6DB00203F490870C0
:100BD00045480078002865D0444805785EE04048E4
:100BE000405D232858D12E460EE03D48805D0A28FE
:100BF00008D13D480078401E3B490870701C3B49B5
:100C0000087005E0701C86B2364800788642ECDB3E
:100C100000BF33492944481C0321FFF7ABFE0446BB
:100C20002046B4F5D97F12D0B0F5EC7F0DD0A0F5F9
:100C30008070DB3803D0B0F59D7F11D10DE02849DD
:100C40002944481D00F04FFB0CE000BF0AE0244996
:100C50002944481D00F0E3FB04E01748007801E058
:100C600000BF00BF00BF2048007820B11D480078B9
:100C7000B0F5A07F09DB002704E000201849C85523
:100C8000781C87B2B7F5A07FF7DB00201549087004
:100C90001649087011490870681C85B2114800781F
:100CA00085429CDBBDE8F081940000209C00002080
:100CB000800100209B000020090000200038014036
:100CC0003F00002098000020E7000020970000204F
:100CD000E800002000100140600100209900002081
:100CE000640400209D000020950000209E0000204C
:100CF000704700BFFEE700BFFEE700BFFEE700BF92
:100D0000FEE770477047704700204FF0E021886190
:100D1000CB48006820B1CA480068401EC849086036
:100D2000704770B5012002F09BFA00286AD00120BC
:100D300002F0A7FA072000F0ADFEC2490870C248D1
:100D4000006940F00100C0490861BE48007810F019
:100D5000200F02D0E12000F0CDFDBA48007810F05D
:100D6000100F02D0E12000F0C5FDB648007810F069
:100D7000400F42D00120B5490870B348406940F0A7
:100D80000400B14948612022B149612000F099FE78
:100D9000AC480078C0F34204AE48007850BB002550
:100DA00026E0AB48405DAC49AC4A1278885408460E
:100DB000AA490978405C0A280BD1A8480078401E4F
:100DC000A549085C0D2804D1A5480078401CA44919
:100DD0000870A2480078401CA049087008460078B6
:100DE000B0F5A07F02DB01209A490870681CC5B2EB
:100DF000202DD6DB002095490870924801782720E5
:100E000000F08BFD70BD70B54FF4807002F028FAD1
:100E100000287DD04FF4807002F033FA072000F0F4
:100E20003CFF904908700846007810F0200F02D06F
:100E3000E12000F0BAFD8B48007810F0100F02D0CE
:100E4000E12000F0B2FD8748007810F0400F5BD041
:100E500001208549087085480088401C8349088026
:100E60007948406940F04000774948612022804934
:100E7000612000F029FFFF21272000F0A9FD724822
:100E8000406940F08000704948610021E22000F094
:100E90009FFD6D48006940F080006B490861714812
:100EA0000078C0F342047348007850BB002526E068
:100EB0006F48405D7049714A1278885408466F49FE
:100EC0000978405C0A280BD16C480078401E6A49BA
:100ED000085C0D2804D16A480078401C68490870F5
:100EE00066480078401C6549087008460078B0F5EF
:100EF000A07F02DB01205F490870681CC5B2202D6D
:100F0000D6DB002058490870FF21272000F060FD43
:100F100070BD10B50221480703F0E1F938B1022194
:100F2000480703F0EDF902205649087033E0042128
:100F3000080703F0D4F958B10421080703F0E0F9D9
:100F400050480078022826D103204E49087022E03C
:100F50000821C80603F0C3F938B10821C80603F018
:100F6000CFF904204849087015E01021880603F0E5
:100F7000B6F920B11021880603F0C2F90BE0012177
:100F8000880703F0ACF9012805D10121800703F09F
:100F9000B7F900F07BFA10BD10B501213B4803F012
:100FA0009EF960B10121394803F0AAF93848006878
:100FB000401C374908600020364908700BE00221C8
:100FC000324803F08CF930B10221304803F098F92F
:100FD00001203049087010BD10B52F48008810F06E
:100FE000200F27D02D48007820BB2B4802F095FA1F
:100FF0002B492C4A1278885408462A490978405CC3
:101000000A280BD127480078401E2549085C0D2886
:1010100004D125480078401C2349087021480078F5
:10102000401C2049087008460078322802DB012065
:101030001A49087040F22771174802F0EEFA10BD05
:1010400070000020E5000020001001409600002004
:101050004001002098000020800100209B0000201B
:1010600094000020E700002097000020E800002006
:101070006001002099000020640400209D000020F1
:101080009500002007000020090000200004004017
:10109000500000200B00002000380140A20000207A
:1010A000C4080020A4000020A000002030B50B469A
:1010B000002409E01D78858000BF058815F0400FE9
:1010C000FBD05B1C651CACB29442F3DB30BD70B549
:1010D00004460E4635460CE0287810B90120FFF78B
:1010E00019FC2878A08000BF208810F0400FFBD0AA
:1010F0006D1C28780028EFD170BD818000BF028868
:1011000012F0400FFBD0704730B5024649480068E6
:10111000407B05282DDA20292BDC002313E04548ED
:1011200000680E30C05C60B91025424800680E307F
:10113000C55440480068407B401C3E4D2D68687394
:1011400003E0581CC3B2052BE9DB00BF3A4800EBB3
:101150004310384D2D682860002406E0105D354DA1
:101160002D682D682855601CC4B28C42F6DB012026
:1011700030BD0020FCE72DE9F04130480078002820
:1011800055D02F4804784EE02E48005D232848D1E2
:1011900025460EE02B48405D0A2808D127480078F4
:1011A000401E26490870681C2549087005E0681C27
:1011B000C5B2254800788542ECDB00BF21492144B7
:1011C000481C0621FFF7D6FB0646A6F5407071388D
:1011D00007D0A0F50070ED380AD101201B49087036
:1011E00007E02A1BD1B2174A1019FFF78DFF00E064
:1011F00000BF00BF1148007818B1134800783228AA
:1012000008DB002704E000200E49C855781CC7B24F
:10121000322FF8DB00200C490870094908700C498E
:101220000870601CC4B2084800788442ACDBBDE89A
:10123000F0810000A8000020540A0020A000002037
:10124000A5000020C4080020A40000200700002002
:10125000A200002070B504460D46F848406940F0F1
:101260000400F6494861012C04D12946252000F0EC
:1012700054FB05E0022C03D12946252000F0A8FBF1
:1012800070BD10B503F056F8322190FBF1F201FB6E
:101290001200401CC4B22046FFF73CFB10BD10B545
:1012A0000446012C0FD13F21212000F091FB3F216A
:1012B000222000F08DFBE249012000F058FD0120C2
:1012C000E04908700EE03F21212000F081FB3E2123
:1012D000222000F07DFBDC49012000F048FD0620C3
:1012E000D849087010BDF0B58BB004462022D7490C
:1012F00003A803F045F801A800210A4606C0D44817
:1013000000680078062806DDD2A1D748FFF7DFFE87
:1013100000200BB0F0BD012511E0CD480068093078
:10132000405D50B91021CA480068093041550A2172
:10133000C74800680F30415503E0681CC5B2062D50
:10134000EBDB00BFC24800683030052101FB05001F
:10135000BF4909684860C5484078BD49096849687F
:101360000870C2488078BA49096849684870BF481F
:10137000C078B749096849688870BC480079B449A1
:1013800009684968C870B24800684068057100265D
:1013900004E0A05D01A98855701CC6B2052EF8DBDB
:1013A000AB4800680078401CA949096808709DF89E
:1013B00004008DF811009DF805008DF812009DF8CD
:1013C00006008DF813009DF807008DF814009DF8B5
:1013D00008008DF81500A54840788DF81700A3483F
:1013E00080788DF81800A148C0788DF819009F48C2
:1013F00000798DF81A008DF81B5020218F4801F0DC
:101400002CFDC0F10100C7B23A4620218B4801F003
:1014100035FD202103A8FFF777FE002079E72DE9AD
:10142000F04104461021854801F017FDC0F101008C
:1014300000F0FF0842461021804801F01FFD84485B
:101440000068007800B300251CE081480068303057
:10145000052101FB0507052221463846FFF778FAEA
:101460000646012E0CD17A4800680F30405D401CC2
:10147000C1B2774800680F3041550120BDE8F081C6
:10148000681CC5B2062DE0DB0020F7E77FB5684693
:1014900077A16CC96CC06E480068007800284FD0F6
:1014A00001244BE06A4800680930005D102843D1F0
:1014B000674800680F30005D50B1654800680F3024
:1014C000005D401EC1B2624800680F30015533E034
:1014D000642094FBF0F03030C0B28DF80800642036
:1014E00094FBF0F100FB11400A2190FBF1F0303049
:1014F000C0B28DF80900642094FBF0F100FB1140AC
:101500000A2190FBF1F201FB12003030C0B28DF8DD
:101510000A0000214E480068093001554FF48071DF
:10152000574801F09AFCC0F10100C6B232464FF4B0
:101530008071534801F0A2FC601CC4B2062CB1DBE0
:10154000254601E0681CC5B2414800680078A84201
:10155000F8DC7FBD10B588B020223C4920316846B8
:1015600002F00EFF012424E0394800680930005DD4
:1015700010281CD1364800683030052101FB0400DA
:1015800033490968486032490968486800F02DFB12
:101590003C48008800128DF805004FF08040B0F8FC
:1015A0002404C0B28DF80600684600F05FFB601CA2
:1015B000C4B2062CD8DB02202249087008B010BD46
:1015C00030B589B0054620222049403101A802F0FB
:1015D000D7FE012D0DD1002406E02B48015D601DD2
:1015E00001AA1154601CC4B2052CF6DB01A800F05E
:1015F0004EFC09B030BD70B50446012519E0144811
:1016000000680930405D102811D111480068303061
:10161000052101FB05000E49096848600C4909686D
:10162000486800F0E2FA204600F020FB03E0681C66
:10163000C5B2062DE3DB00BF70BD00000010014005
:10164000AC00002008000020B6000020B0440008D4
:10165000EC0000205278416472546162206973206A
:1016600046756C6C210D0A0000380140C000002056
:101670004D697373204D6F64303030210D0A0000C6
:101680000008014024040040C500002070B500257A
:101690006FE088480068407B00B96CE0002464E09B
:1016A000844800680E30005D10285CD1824800EB51
:1016B00044108049096808607E4909680968C81DA6
:1016C00000F093FA7B490968086800F0CFFAFFF749
:1016D00084F97A4908600CE0FFF77FF978490860DF
:1016E0000846016875480068FFF785F9642800D945
:1016F00004E07448007810F0300FEDD000BF71485E
:10170000007810F0200F0CD000216A4800680E30DD
:10171000015568480068407B401E66490968487367
:1017200021E06848007810F0100F18D0132D1AD15E
:10173000002060490968096848736348FFF740F969
:1017400006465C490968324608685F49FFF721F997
:101750005848006801685D48FFF7B9FC03E05CA1E8
:101760005A48FFF7B4FC601CC4B2052C98DB681C17
:10177000C5B2142D8DDB00BF70BD70B50125584872
:1017800000680078002864D055480068067A22E096
:10179000534800680930805D102817D1681CC5B215
:1017A0004F4800683030052101FB06004C490968AC
:1017B00048604B4800684168284600F0D8FA48481D
:1017C0000068407D401C464909684875701CC6B2D7
:1017D000434800680672052D01DA062ED8DBC5F1F4
:1017E0000701FF20084100F0FE043E480078012870
:1017F00004D144F001043C4900F0B9FA052D08DB9E
:101800002146212000F0E4F82146222000F0E0F8F3
:101810000EE02146212000F0DBF82146222000F0D6
:10182000D7F800202E49096808722D4909684875C3
:101830002B480068407D2A4909680978884201DA06
:10184000062E06DB0020264909680872244909682B
:10185000487570BD10B523480078072817D2DFE817
:1018600000F011040C0D1610120020480078012819
:1018700002D00120FFF713FD0AE009E0FFF706FFA1
:1018800006E005E004E006201849087000E000BF0B
:1018900000BF1748007840B1042802D0062805D1BF
:1018A00002E0FFF76AFF02E001E000E000BF00BFD6
:1018B00010BD0000A8000020540A00206000002095
:1018C00064000020E50000204A00002000380140AC
:1018D000535049315F54585F45520D0A00000000D3
:1018E000EC00002007000020AC00002008000020D1
:1018F0000900002010B504462146FC4800F060FFB6
:1019000000BF0121F94800F0AEFF0028F9D0F748E8
:1019100000F058FFC4B2204610BD70B504460D4615
:10192000F348406940F00200F14948612046FFF762
:10193000E1FF06462846FFF7DDFFED48006940F06D
:101940000200EB490861304670BD10B54FF47A7063
:10195000FEF7E0FFE648406940F00400E4494861D2
:101960000846006940F00200086103212120FFF7CA
:10197000D4FF03212220FFF7D0FF28212520FFF7E5
:10198000CCFF20213120FFF7C8FF07212620FFF7D9
:10199000C4FF0E212020FFF7C0FF70212720FFF792
:1019A000BCFF6420FEF7B6FF10BD10B5044621460B
:1019B000D04800F005FF00BF0121CE4800F053FFE2
:1019C0000028F9D0CB4800F0FDFEC4B2204610BD7F
:1019D00070B504460D46C648406940F08000C449D1
:1019E00048612046FFF7E1FF06462846FFF7DDFF86
:1019F000BF48006940F08000BD490861304670BDB5
:101A000010B54FF4FA70FEF785FFB948406940F011
:101A10004000B74948610846006940F0800008610D
:101A20003F212120FFF7D4FF3F212220FFF7D0FFE5
:101A300028212520FFF7CCFF20213120FFF7C8FF08
:101A400020213220FFF7C4FF20213320FFF7C0FF01
:101A500020213420FFF7BCFF20213520FFF7B8FFFD
:101A600020213620FFF7B4FF07212620FFF7B0FF23
:101A70000F212020FFF7ACFF70212720FFF7A8FFE0
:101A80009B48006940F0400099490861C820FEF772
:101A900041FF10BD70B504469548406940F0020012
:101AA000934948612046FFF725FF0020FFF722FFFA
:101AB00005468F48006940F002008D4908612846BC
:101AC00070BD2DE9F04104460D4616468848406930
:101AD00040F00200864948612046FFF70BFF0746A9
:101AE0004FF0000808E00020FFF704FF05F80800A9
:101AF00008F1010000F0FF08B045F4DB7C48006904
:101B000040F002007A4908613846BDE8F0812DE9CD
:101B1000F04104460D4616467548406940F0020003
:101B2000734948612046FFF7E5FE07464FF000087D
:101B300007E015F8010BFFF7DDFE08F1010000F0EA
:101B4000FF08B045F5DB6A48006940F002006849CB
:101B500008613846BDE8F08170B504460D4664481A
:101B6000406940F0040062494861062C28D2DFE851
:101B700004F003090F151B21052229462A20FFF72F
:101B8000C6FF23E0052229462B20FFF7C0FF1DE0FA
:101B9000052229462C20FFF7BAFF17E00522294627
:101BA0002D20FFF7B4FF11E0052229462E20FFF774
:101BB000AEFF0BE0052229462F20FFF7A8FF05E026
:101BC000052229462A20FFF7A2FF00BF00BF0F21F0
:101BD0002020FFF7A2FE4648006940F00400444977
:101BE00008618220FEF796FE70BD10B5044640489D
:101BF000406940F004003E494861052221463020FA
:101C0000FFF785FF052221462A20FFF780FF0E21DE
:101C10002020FFF782FE3648006940F00400344976
:101C200008614FF4FA60FEF78DFE10BD70B50446F2
:101C300000250720FFF72EFF2F490870084600787F
:101C400010F0400F0BD02A48406940F004002849AA
:101C50004861202221466120FFF733FF01252648F5
:101C600001782720FFF759FE284670BD10B50446BD
:101C70001F48406940F004001D4948612022214668
:101C8000A020FFF744FF1A48006940F004001849FB
:101C900008618220FEF756FE10BD70B50446144858
:101CA000406940F08000124948612046FFF77DFE00
:101CB0000020FFF77AFE05460D48006940F08000DD
:101CC0000B490861284670BD2DE9F04104460D46D8
:101CD00016460748406940F08000054948612046A3
:101CE000FFF763FE07464FF0000810E000300140A8
:101CF0000010014000380040E50000200020FFF700
:101D000054FE05F8080008F1010000F0FF08B04596
:101D1000F4DB6A48006940F0800068490861384691
:101D2000BDE8F0812DE9F04104460D4616466348B2
:101D3000406940F08000614948612046FFF735FE68
:101D400007464FF0000807E015F8010BFFF72DFEDE
:101D500008F1010000F0FF08B045F5DB57480069C5
:101D600040F08000554908613846BDE8F08170B503
:101D700004460D465148406940F040004F494861D3
:101D8000062C28D2DFE804F003090F151B210522D9
:101D900029462A20FFF7C6FF23E0052229462B20EB
:101DA000FFF7C0FF1DE0052229462C20FFF7BAFFF0
:101DB00017E0052229462D20FFF7B4FF11E0052288
:101DC00029462E20FFF7AEFF0BE0052229462F20E3
:101DD000FFF7A8FF05E0052229462A20FFF7A2FF0A
:101DE00000BF00BF0F212020FFF7F2FD334800693C
:101DF00040F04000314908614FF4A570FEF78AFDBC
:101E000070BD10B504462D48406940F040002B4994
:101E10004861052221463020FFF784FF0522214634
:101E20002A20FFF77FFF0E212020FFF7D1FD234856
:101E3000006940F04000214908618220FEF76AFDF8
:101E400010BD70B5044600250720FFF726FF1C498A
:101E500008700846007810F0400F11D0174840690C
:101E600040F0400015494861202221466120FFF7DB
:101E70002BFF1248006940F040001049086101251D
:101E80000F4801782720FFF7A3FD284670BD10B545
:101E900004460A48406940F0400008494861202251
:101EA0002146A020FFF73EFF0448006940F04000B3
:101EB000024908610A20FEF72DFD10BD0010014007
:101EC000E70000200948804709480047FEE7FEE791
:101ED000FEE7FEE7FEE7FEE7FEE7FEE7FEE7FEE7DA
:101EE00004480549054A064B704700007530000854
:101EF00031010008B00C0020B0120020B00E00200C
:101F0000B00E002032490143324A1160704770B56B
:101F1000002100230F22C4780CB32E4C246804F453
:101F2000E064C4F5E064210AC1F10403CA404478C6
:101F300004FA03F18478144021430901264C067801
:101F4000A155047804F01F050124AC4005786D11FB
:101F50004FF0E02606EB8505C5F8004109E004785E
:101F600004F01F040125A5401C4C0678761144F8A6
:101F7000265070BD1A4A0A400243164B1B1F1A60B6
:101F8000704741B1134A121D126802434FF0E0231B
:101F9000C3F8102D07E00F4A121D126882434FF05C
:101FA000E023C3F8102D7047042808D14FF0E0213A
:101FB000096941F004014FF0E022116107E04FF0A0
:101FC000E021096921F004014FF0E022116170471E
:101FD0000000FA050CED00E000E400E080E100E024
:101FE00080FFFF1F0021FF4A116801F03801014303
:101FF00011607047FB49096821F00801F94A116036
:1020000011460968014311607047F649096821F0DB
:102010001001F44A116011460968014311607047CC
:10202000F148F0494860F14848607047EE48ED4992
:102030004860EE4848607047EA48006940F0800018
:10204000E84908617047E748006940F08000E549C9
:10205000086170470420E349C96801F001010129C2
:1020600001D101200EE0DF49C96811F0040F01D051
:10207000022007E0DB49C96811F0100F01D00320EE
:1020800000E00420704700B502460423FFF7E2FF9A
:10209000034603E0FFF7DEFF0346521E012B01D18A
:1020A000002AF7D102B90523184600BD30B5044611
:1020B00004254FF43020FFF7E6FF0546042D19D123
:1020C000C848006940F00200C649086108464461FA
:1020D000006940F0400008614FF43020FFF7D3FF63
:1020E0000546052D06D0BF48006941F6FD71084040
:1020F000BC490861284630BD10B504244FF4302097
:10210000FFF7C1FF0446042C18D1B648006940F01F
:102110000400B44908610846006940F040000861C5
:102120004FF43020FFF7AFFF0446052C06D0AD4832
:10213000006941F6FB710840AA490861204610BDBC
:1021400000B502460423FFF785FF034603E0FFF7CF
:1021500081FF0346521E012B01D1002AF7D102B99B
:102160000523184600BD10B504244FF43020FFF7B6
:10217000E7FF0446042C18D19A48006940F0040097
:10218000984908610846006940F0400008614FF432
:102190003020FFF7D5FF0446052C06D09148006992
:1021A00041F6FB7108408F490861204610BD0020B0
:1021B0008C49C96911F0020F01D0012000E0002014
:1021C000704730B5A5240425FFF7F1FF00B10024C6
:1021D0004FF43020FFF757FF0546042D3AD18248CF
:1021E00080498860814888600846006940F0200086
:1021F00008610846006940F0400008614FF4302053
:10220000FFF741FF0546042D1BD17648006941F6D2
:10221000DF710840734908610846006940F010000A
:10222000086173480480E802FFF72DFF0546052D7D
:1022300010D06C48006941F6EF71084069490861A7
:1022400008E0052D06D06748006941F6EF710840A7
:1022500064490861284630BDF0B504460D460426A1
:102260000027F002FFF70FFF0646042E26D15D4837
:10227000006940F001005B4908612580F002FFF72A
:1022800002FF0646042E10D1A71C280C3880F0024D
:10229000FFF7F9FE0646052E10D05248006941F6B8
:1022A000FE7108404F49086108E0052E06D04D48F0
:1022B000006941F6FE7108404A4908613046F0BDA8
:1022C00070B504460D460426F002FFF7DCFE064614
:1022D000042E13D14348006940F0010041490861D0
:1022E0002580F002FFF7CFFE0646052E06D03D48BA
:1022F000006941F6FE7108403A490861304670BDF8
:1023000070B504460D460426F002FFF7BCFE0646F3
:10231000042E17D134483349886034488860084611
:10232000006940F0100008612580F002FFF7ABFE65
:102330000646052E06D02B48006941F6EF7108408D
:1023400028490861304670BD2DE9F04304464FF638
:10235000FF752E462F46A8464FF00409E443E5B228
:10236000C4F30726C4F307474FEA14684FF400503C
:10237000FFF789FE8146B9F1040F4ED11A48194979
:1023800088601A4888600846006940F010000861BB
:10239000FF2D07D01648083005804FF40050FFF796
:1023A00072FE8146B9F1040F09D1FF2E07D0104803
:1023B0000A3006804FF40050FFF765FE8146B9F100
:1023C000040F09D1FF2F07D009480C3007804FF4C4
:1023D0000050FFF758FE8146B9F1040F13D1B8F150
:1023E000FF0F07E00020024023016745AB89EFCDD6
:1023F00000F8FF1F07D06F48A0F80E884FF4005078
:10240000FFF741FE8146B9F1050F06D06A48006921
:1024100041F6EF710840684908614846BDE8F0831D
:1024200030B5044604254FF43020FFF72CFE054656
:10243000042D41D161486049886061488860084640
:10244000006940F0200008610846006940F0400043
:1024500008614FF43020FFF716FE0546042D22D107
:102460005548006941F6DF71084053490861084644
:10247000006940F0100008611CB10020514908803B
:1024800002E0A5204F4908804FF43020FFF7FBFD04
:102490000546052D10D04848006941F6EF71084007
:1024A0004549086108E0052D06D04348006941F61A
:1024B000DF71084040490861284630BDF0B5044648
:1024C0000D46164604273D483B4988603C488860D5
:1024D000F802FFF7D8FD0746042F19D136480069E6
:1024E00040F010003449086146F0F80028432043CA
:1024F0003449891C0880F802FFF7C5FD0746052FFF
:1025000006D02D48006941F6EF7108402A4908615C
:102510003846F0BD2848C069800870472648006AE0
:10252000704700202449096811F0200F01D00120D4
:1025300000E00020704729B11F4A126902431E4B78
:102540001A6104E01C4A126982431B4B1A617047EE
:1025500001460020012908D1174AD26912F0010F63
:1025600001D0012008E0002006E0134AD2680A42A8
:1025700001D0012000E0002070470F49C86070477B
:1025800004200D49C96801F00101012901D1012090
:102590000EE00949C96811F0040F01D0022007E0DC
:1025A0000549C96811F0100F01D0032000E0042094
:1025B0007047000000F0FF1F002002402301674524
:1025C000AB89EFCD00F8FF1F10B50446BE4884422A
:1025D00008D10121801400F0FDFA0021A01400F0C0
:1025E000F9FA16E0B948844208D10121001400F03C
:1025F000FEFA0021201400F0FAFA0AE0B4488442FE
:1026000007D10121C01300F0F2FA0021E01300F01D
:10261000EEFA10BD10B50022028802F441520B8878
:102620004C8823438C882343CC8823430C89234341
:102630004C8923438C892343CC8923431A4302804A
:10264000838B4FF2FF74234083830B8A038210BD78
:102650002DE9F04F85B004460D4600260227B0460E
:102660004FF00109B246B346A08B4FF2400108403B
:10267000A08302202084A68BA868022801D100BF75
:1026800038E0A88810B94FF0010901E04FF00209C5
:102690008E48844200D100E000BF684600F012FA84
:1026A000DDF800B0E888B0F5007F0BD14FEA1B20C1
:1026B00000EB80004000A968B0FBF1F0401D1FFA5C
:1026C00080FA0CE04FEA4910BBFBF0F000EB800011
:1026D0004000A968B0FBF1F0401D1FFA80FA0A2003
:1026E000BAFBF0FA0AF00108AAEB0800C0F34F07A2
:1026F0004FEA0828022F01DBFF2F02DD02274FF0EF
:102700000008E88840EA080038432084A888A9899E
:102710000843698808432988084340F40060064359
:10272000A68305B0BDE8F08F002101804180818043
:10273000C180018141818181C1810721018270476E
:102740000021018041808180C180022181600021BF
:102750008181704721B1028842F04002028004E08A
:1027600002884FF6BF731A400280704721B1828BF6
:1027700042F48062828304E0828B4FF6FF331A407A
:102780008283704770B5002300240B1101259D4002
:10279000ACB21AB185882543858004E08588E6437C
:1027A000B6B23540858070BD10B51AB183880B4331
:1027B000838004E08388CC43A4B22340838010BD8F
:1027C00081817047014688897047A1F57E42FF3AB2
:1027D00004D0028842F48072028004E002884FF63E
:1027E000FF631A400280704721B1828842F00402E0
:1027F000828004E082884FF6FB731A408280704723
:1028000002884FF2FF731A40028002880A43028056
:102810007047018841F480510180704721B10288DE
:1028200042F40052028004E002884DF6FF731A4021
:102830000280704702460020012901D0108B00E081
:10284000908A70470146088A7047B1F5804F04D1DD
:10285000028842F48042028004E002884BF6FF7353
:102860001A40028070470246002013890B4201D0B3
:10287000012000E000207047CA4302817047F0B594
:102880000246002000230024002501F00F07012646
:10289000BE40B3B20C110126A640B4B2968806EA37
:1028A000040516891E4202D00DB1012000E000206F
:1028B000F0BD10B5002201F00F040123A3409AB22D
:1028C000D343038110BD00000030014000380040B8
:1028D000003C0040DB48006840F00100D949086036
:1028E00008464068D8490840D6494860084600680C
:1028F000D6490840D34908600846006820F4802083
:1029000008600846406820F4FE0048604FF41F004D
:1029100088607047CB49096821F48031C94A116049
:102920001146096821F480211160B0F5803F03D081
:10293000B0F5802F0ED106E0C249096841F480311C
:10294000C04A116007E0BF49096841F4A021BD4AAF
:10295000116000E000BF00BF704710B501460022C3
:10296000002300204A11012A02D1B64C236806E058
:10297000022A02D1B34C236A01E0B24C636A01F02F
:102980001F02012494401C4201D0012000E00020DD
:1029900010BD70B500240025002600BF3120FFF7D0
:1029A000DCFF0646641CB4F5A06F01D0002EF5D004
:1029B0003120FFF7D2FF08B1012500E000252846AD
:1029C00070BD00219F4A116821F0F80141EAC00161
:1029D000116070479E49086070470022994B5A6801
:1029E00022F47C1240EA01031A43964B5A60704766
:1029F0009749086670470021924A516821F0030107
:102A00000143516070478F48406800F00C007047E8
:102A100000218C4A516821F0F00101435160704758
:102A20000021884A516821F4E061014351607047F8
:102A30000021844A516821F4605141EAC00151608B
:102A4000704729B17F4A527A02437E4B5A7206E0A0
:102A50007C4A527AC343DBB21A407A4B5A727047AF
:102A60007B49D831086070470021764A516821F4CB
:102A700040410143516070470021724A2032117079
:102A8000704A82F82010012802D004280AD104E0FC
:102A900001216C4A2032117005E00521694A20327B
:102AA000117000E000BF00BF70476A4908607047BE
:102AB0006449096A0143634A1162704765494439B0
:102AC0000860704730B500210022002300245D4DCE
:102AD0006D6805F00C0121B1042905D0082923D126
:102AE00005E05D4D056022E05B4D05601FE0554D42
:102AF0006D6805F47012534D6D6805F4803302253E
:102B000005EB92421BB9554D554305600BE04D4D09
:102B10006D6815F4003F03D0504D5543056002E049
:102B20004D4D5543056002E04B4D056000BF00BFB1
:102B3000444D6D6805F0F0010909494D6C5C05686C
:102B4000E54045603F4D6D6805F4E061090A444D7C
:102B50006C5C4568E54085603A4D6D6805F46051F0
:102B6000C90A3F4D6C5C4568E540C560354D6D68F0
:102B700005F44041890B3A4D10356C5CC568B5FBD6
:102B8000F4F5056130BD29B12E4A526902432D4B3F
:102B90005A6104E02B4A526982432A4B5A617047BA
:102BA00029B1284A92690243264B9A6104E0254ADA
:102BB00092698243234B9A61704729B1214AD269B5
:102BC0000243204BDA6104E01E4AD26982431D4B66
:102BD000DA61704729B11B4AD2680243194BDA60A7
:102BE00004E0184AD2688243164BDA60704729B174
:102BF000144A12690243134B1A6104E0114A126924
:102C00008243104B1A61704712494039086070477F
:102C10000F49C86470470B49C87170470948406A3A
:102C200040F0807007494862704701460020054A1D
:102C300092680A4201D0012000E00020704701495B
:102C400088727047001002400000FFF8FFFFF6FE98
:102C5000000042428004424200127A0000093D0016
:102C6000F000002010B50446C748844208D1012175
:102C70000420FFF7AFFF00210420FFF7ABFF46E081
:102C8000C248844208D101210820FFF7A3FF002198
:102C90000820FFF79FFF3AE0BD48844208D1012198
:102CA0001020FFF797FF00211020FFF793FF2EE081
:102CB000B848844208D101212020FFF78BFF002172
:102CC0002020FFF787FF22E0B348844208D101218A
:102CD0004020FFF77FFF00214020FFF77BFF16E039
:102CE000AE48844208D101218020FFF773FF002104
:102CF0008020FFF76FFF0AE0A948844207D1012135
:102D00008015FFF767FF0021A015FFF763FF10BDD7
:102D100010B501210846FFF75DFF00210120FFF7F4
:102D200059FF10BDF0B50022002300240025002625
:102D3000002791F803C00CF00F0291F803C01CF0BB
:102D4000100F03D091F802C04CEA0202B1F800C0A3
:102D50001CF0FF0F31D0066800242BE04FF0010C6F
:102D60000CFA04F5B1F800C00CEA0503AB4220D11F
:102D7000A5004FF00F0C0CFA05F7BE4302FA05FC54
:102D80004CEA060691F803C0BCF1280F06D14FF0BB
:102D9000010C0CFA04FCC0F814C00AE091F803C05E
:102DA000BCF1480F05D14FF0010C0CFA04FCC0F83F
:102DB00010C0641C082CD1D30660B1F800C0BCF16F
:102DC000FF0F34DD466800242EE004F1080C4FF0BC
:102DD000010E0EFA0CF5B1F800C00CEA0503AB4287
:102DE00021D1A5004FF00F0C0CFA05F7BE4302FAF3
:102DF00005FC4CEA060691F803C0BCF1280F05D18A
:102E000004F1080C0EFA0CFEC0F814E091F803C0AF
:102E1000BCF1480F07D104F1080C4FF0010E0EFA77
:102E20000CFEC0F810E0641C082CCED34660F0BD48
:102E30004FF6FF710180022181700421C17070473B
:102E40000246002093680B4201D0012000E00020E0
:102E500070470146886880B2704702460020D368F8
:102E60000B4201D0012000E0002070470146C868F5
:102E700080B2704701617047416170470AB10161DA
:102E800000E041617047C16070474FF480320A43EF
:102E90008261816182618269826970470022414B4F
:102EA0001A684FF680731A4042EA00120A433D4BFB
:102EB0001A6070473C49C8617047F0B50022002392
:102EC0000024002500F00046B6F1004F02D1354E37
:102ED000F46901E0334E7468C0F3034582B200F434
:102EE0004016B6F5401F08D124F070642D4E766868
:102EF00026F070662B4F7E6012E000F48016B6F567
:102F0000801F06D1032606FA05F39C4344F0706443
:102F100006E0460D360102FA06F6B44344F070644A
:102F200021B1460D360102FA06F6344300F00046A0
:102F3000B6F1004F02D11B4EF46101E0194E7460EE
:102F4000F0BD30B500228B071C0F0F2303FA04F2EB
:102F5000144B08338C1053F8244094438D1043F8DD
:102F600025408C1053F824308C07240F00FA04F409
:102F700023430C4C08348D1044F8253030BD0A49E9
:102F8000DC3108607047000000080140000C01407F
:102F9000001001400014014000180140001C0140D5
:102FA00000200140000001400000204200200021DC
:102FB000654A126842F48032634B1A6000BF624A6D
:102FC000126802F40031401C11B9B0F5A06FF6D1BF
:102FD0005D4A126812F4003F01D0012100E0002197
:102FE000012942D1594A126842F01002574B1A6027
:102FF0001A46126822F003021A601A46126842F05A
:1030000002021A60504A52684F4B5A601A46526880
:103010005A601A46526842F480625A601A465268F0
:1030200022F47C125A601A46526842F4E8125A603E
:103030001A46126842F080721A6000BF424A126853
:1030400012F0007FFAD0404A526822F003023E4B51
:103050005A601A46526842F002025A6000BF3A4A69
:10306000526802F00C02082AF9D1704710B5FFF738
:103070009DFF10BD10B53448006840F00100324992
:10308000086008464068324908402F4948600846B1
:103090000068304908402C4908600846006820F460
:1030A000802008600846406820F4FE0048604FF425
:1030B0001F008860FFF7DAFF10BD10B50020002167
:1030C0000022214B5B6803F00C0020B1042806D0DD
:1030D000082828D107E0204B204C236027E01E4B16
:1030E0001E4C236023E0184B5B6803F47011164BF1
:1030F0005B6803F48032022303EB914122B9184B41
:103100004B43164C23600DE00F4B5B6813F4003FFC
:1031100004D0134B4B43114C236003E00E4B4B4345
:103120000E4C236003E00C4B0C4C236000BF00BF2F
:10313000054B5B68C3F303130A4CE05C074B1B6849
:10314000C340064C236010BD001002400020024026
:103150000000FFF8FFFFF6FE00127A0004010020D5
:1031600000093D0008010020002048490860484946
:10317000C1F80404454908310860091D0860454844
:103180004249143108607047002140498279002A81
:1031900040D03F4AD2F8002403689A433C4BC3F81E
:1031A00000241A46D2F8042403689A430B1D1A60BF
:1031B000027911440A6803681A430A60344AD2F853
:1031C000082403689A43324BC3F808241A46D2F8FD
:1031D0000C2403689A432D4B0C331A604279102A51
:1031E00010D12B4AD2F8082403681A43284BC3F89D
:1031F00008241A46D2F80C2403681A43244BC3F857
:103200000C240DE02149427911440A6803681A43ED
:103210000A6005E0027911440A6803689A430A606B
:1032200070470021016001710C2141710021817101
:1032300070471649103109680143154AC2F8101445
:10324000704701460020114A143212680A4201D028
:10325000012000E0002070470C49143108607047DD
:10326000014600200022094B1B6803EA0102084BBB
:10327000D3F814340B4202D00AB1012000E0002040
:103280007047024914310860704700000004014093
:1032900000000140FFFF0F0010B50446FB488442C8
:1032A00009D101218803FFF795FC00214FF48040EC
:1032B000FFF790FC32E0F648844209D1012148042E
:1032C000FFF795FC00214FF40030FFF790FC25E05C
:1032D000F048844209D101218804FFF788FC0021CD
:1032E0004FF48020FFF783FC18E0EB48844209D1BB
:1032F0000121C804FFF77BFC00214FF40020FFF7F9
:1033000076FC0BE0E548844208D101210805FFF76F
:103310006EFC00214FF48010FFF769FC10BD2DE911
:10332000F04786B004460D460026002700BFB14690
:10333000B246A88900B100BFA246268A4CF6FF70AB
:103340000640E88806432682A6894EF6F31006401A
:10335000A88829890843698908430643A681A68A63
:103360004FF6FF400640A8890643A68201A8FFF752
:10337000A9FB5446C548824501D1049F00E0039F44
:10338000A08910F4004F08D007EBC70000EB07102E
:1033900029684900B0FBF1F807E007EBC70000EB34
:1033A000071029688900B0FBF1F86420B8FBF0F041
:1033B00006013009642101FB1089A08910F4004F37
:1033C00009D0322101EBC9006421B0FBF1F000F01B
:1033D0000700064308E0322101EB09106421B0FB2D
:1033E000F1F000F00F000643268106B0BDE8F0873B
:1033F0004FF41651016000218180C18001810C21B0
:10340000418100218181704710B50022028A4FF26C
:10341000FF031A400B884C8823438C882343CC88B5
:1034200023431A43028210BD002101804180818024
:10343000C180704721B1828942F40052828104E048
:1034400082894DF6FF731A4082817047F0B50024DF
:10345000002500260023A1F510676A3F00D100BFB8
:103460000346C1F3421401F01F05012707FA05F6D0
:10347000012C01D10C3304E0022C01D1103300E007
:1034800014331AB11F6837431F6002E01F68B74347
:103490001F60F0BD10B51AB1838A0B43838204E02C
:1034A000838ACC43A4B22340838210BD028A4FF6A4
:1034B000F0731A400282028A0A43028270478289AC
:1034C0004FF2FF731A40828182890A4382817047DA
:1034D00021B1828942F00202828104E082894FF6A2
:1034E000FD731A4082817047028A4FF6DF731A40DB
:1034F0000282028A0A430282704721B1028A42F4A0
:103500008042028204E0028A4BF6FF731A40028274
:103510007047C1F308028280704701468888C0F373
:1035200008007047818941F0010181817047028B59
:10353000D2B20283028B42EA012202837047028BDD
:1035400002F47F420283028B0A430283704721B157
:10355000828A42F02002828204E0828A4FF6DF7380
:103560001A408282704721B1828A42F01002828220
:1035700004E0828A4FF6EF731A408282704721B1CD
:10358000828A42F00802828204E0828A4FF6F77350
:103590001A408282704721B1828942F400428281BE
:1035A00003E08289C2F30E028281704721B1828AD0
:1035B00042F40062828204E0828A4FF2FF731A4072
:1035C00082827047828A4FF6FB731A408282828A17
:1035D0000A438282704721B1828A42F002028282CB
:1035E00004E0828A4FF6FD731A40828270470246D9
:1035F0000020B1F5007F00D100BF13880B4201D03D
:10360000012000E00020704701F40072B2F5007F55
:1036100000D100BFCA430280704770B50246002344
:10362000002400250020A1F510666A3E00D100BFED
:10363000C1F3421501F01F04012606FA04F4012D1E
:1036400002D19689344006E0022D02D1168A344018
:1036500001E0968A34400B12012606FA03F316881D
:10366000334014B10BB1012000E0002070BD10B553
:1036700000220023A1F510646A3C00D100BF0A12A9
:1036800001249440A3B2DC43048010BD0038014003
:103690000044004000480040004C00400050004002
:1036A00010B50446FF48844208D10121C014FFF739
:1036B00091FA0021E014FFF78DFAC4E0B4F1804FD5
:1036C00008D101210846FFF792FA00210120FFF7F7
:1036D0008EFAB8E0F448844208D101210220FFF7B5
:1036E00086FA00210220FFF782FAACE0EF4884421C
:1036F00008D101210420FFF77AFA00210420FFF706
:1037000076FAA0E0EA48844208D101210820FFF7B8
:103710006EFA00210820FFF76AFA94E0E548844237
:1037200008D101211020FFF762FA00211020FFF7D5
:103730005EFA88E0E048844208D101212020FFF7AA
:1037400056FA00212020FFF752FA7CE0DB48844241
:1037500008D101214014FFF73DFA00216014FFF762
:1037600039FA70E0D648844209D10121C804FFF734
:1037700031FA00214FF40020FFF72CFA63E0D14822
:10378000844209D101210805FFF724FA00214FF4F2
:103790008010FFF71FFA56E0CB48844209D101217F
:1037A0004805FFF717FA00214FF40010FFF712FA4F
:1037B00049E0C648844208D101214020FFF717FAAA
:1037C00000214020FFF713FA3DE0C148844208D1B0
:1037D00001218020FFF70BFA00218020FFF707FA74
:1037E00031E0BC48844208D101218015FFF7FFF980
:1037F0000021A015FFF7FBF925E0B748844209D165
:1038000001210804FFF7E6F900214FF48030FFF7AB
:10381000E1F918E0B148844209D101214804FFF7D9
:10382000D9F900214FF40030FFF7D4F90BE0AC4890
:10383000844208D101218804FFF7CCF900214FF41C
:103840008020FFF7C7F910BD00220288954B9842EF
:103850000ED09A4B98420BD0B0F1804F08D0924BCB
:10386000984205D0914B984202D0914B984204D196
:103870004FF68F731A404B881A438E4B984207D0ED
:103880008D4B984204D04FF6FF431A40CB881A4321
:1038900002808B8883850B880385824B98420BD0EE
:1038A000864B984208D08C4B984205D08B4B98425F
:1038B00002D08B4B984201D10B7A0386012383827D
:1038C000704770B5002200230024058C4FF6FE7669
:1038D00035400584038C8488028B4FF68F752A400F
:1038E000B51E2A400D882A43751E2B400D892B4397
:1038F0004D882B436B4DA8420BD0704DA84208D089
:10390000754DA84205D0754DA84202D0744DA8420D
:1039100013D14FF6F7752B404D892B434FF6FB75AE
:103920002B408D882B434FF6FF652C404FF6FF55FB
:103930002C408D892C43CD892C4384800283CD88F3
:103940008586038470BD70B5002200230024058C99
:103950004FF6EF7635400584038C8488028B48F659
:10396000FF752A404FF6FF452A400D882D0642EA92
:1039700015424FF6DF752B400D892D0543EA15439F
:103980004D882D0543EA1543464DA84202D04B4DC4
:10399000A8421BD14FF67F752B404D892D0543EA78
:1039A00015434FF6BF752B408D882D0543EA15430F
:1039B0004FF6FF352C404FF2FF752C408D89AD043A
:1039C00044EA1544CD89AD0444EA15448480028359
:1039D000CD880587038470BD70B5002200230024C4
:1039E000058C4FF6FF6635400584038C8488828BF6
:1039F0004FF68F752A404FF6FC752A400D882A43F2
:103A00004FF6FF552B400D892D0643EA15434D888F
:103A10002D0643EA1543234DA84202D0274DA84264
:103A20001BD14FF2FF752B404D892D0643EA1543FC
:103A30004FF6FF352B408D882D0643EA15434EF691
:103A4000FF752C404DF6FF752C408D892D0544EAFD
:103A50001544CD892D0544EA154484808283CD88A0
:103A60008587038470BD70B5002200230024058C77
:103A70004EF6FF7635400584038C8488828B48F6A9
:103A8000FF752A404FF6FF452A400D882D0642EA71
:103A900015424DF6FF752B400D892D0743EA15435E
:103AA0004D881FE0002C0140000400400008004049
:103AB000000C0040001000400014004000340140A1
:103AC000004C0140005001400054014000180040EB
:103AD000001C004000200040004001400044014024
:103AE000004801402D0743EA1543FB4DA84202D090
:103AF000FA4DA84206D14BF6FF752C408D89AD05D5
:103B000044EA154484808283CD88A0F84050038421
:103B100070BD828B4FF2FF331A408283828B0B067B
:103B200042EA134282837047F0B500240025002644
:103B3000078C4EF6FF7C07EA0C070784848B058C04
:103B40000F073E0C40F6FF473C40170644EA174477
:103B50001F0744EA17444DF6FF773D4046F480576F
:103B60003D4384830584F0BD828B4FF6F3731A4086
:103B70008283828B0A4382837047F0B5002500243C
:103B80000026078C4FF6FF6C07EA0C070784858B2D
:103B9000048C0F063E0C4FF60C773D401F0542EAA1
:103BA00017473D434FF6FF573C4046F480773C4370
:103BB00085830484F0BD028B4FF2FF331A400283E9
:103BC000028B0B0642EA134202837047F0B50024D1
:103BD00000250026078C4FF6EF7C07EA0C070784C8
:103BE000048B058C0F053E0C40F6FF473C401F0739
:103BF00044EA1744170644EA17444FF6DF773D407E
:103C000046F010073D4304830584F0BD028B4FF658
:103C1000F3731A400283028B0A4302837047F0B5A4
:103C200000240025068C4FF6FE773E400684048B68
:103C3000058C4FF60C7634401E0542EA1646344396
:103C40007E1E354041F00106354304830584F0BDF6
:103C500070B504460D46288850B92B89AA88698812
:103C60002046FFF7DCFFE9882046FFF7CFFF25E07D
:103C7000288804280AD12B89AA8869882046FFF75A
:103C8000A5FFE9882046FFF796FF17E02888082857
:103C90000AD12B89AA8869882046FFF76EFFE98838
:103CA0002046FFF761FF09E02B89AA886988204632
:103CB000FFF73AFFE9882046FFF72BFF70BD2DE99B
:103CC000F04104460D4600260127688808B90226FF
:103CD00000E00026A888012801D1022700E0012782
:103CE0002888A0B92B89AA8869882046FFF797FF02
:103CF000E9882046FFF78AFF2B893A46314620465D
:103D0000FFF764FFE9882046FFF755FF13E02B8992
:103D1000AA8869882046FFF759FFE9882046FFF7FF
:103D20004AFF2B893A4631462046FFF778FFE9885B
:103D30002046FFF76BFFBDE8F0810A884B881A43E5
:103D40008B881A43CB881A430B891A434B891A4331
:103D50008B891A43A0F8442070474FF6FF71818089
:103D600000210180C18041800172704700210180E3
:103D700041808180C180018141818181C181704701
:103D8000002101804180012181800021C1800181C9
:103D900070470021018041808180C1800181418183
:103DA0008181704721B1028842F00102028004E063
:103DB00002884FF6FE731A400280704731B1B0F8A6
:103DC000442042F40042A0F8442005E0B0F844202A
:103DD000C2F30E02A0F84420704710B51AB18389CF
:103DE0000B43838104E08389CC43A4B223408381C5
:103DF00010BD8182704741EA0203A0F84830704745
:103E000010B51AB183890B43838104E08389CC43C5
:103E1000A4B22340838110BD01894FF6F87211408E
:103E200001817047002202894FF68F731A400A43BE
:103E30000281704730B504460D4629462046FFF7FB
:103E4000F1FF208940F00700208130BD2DE9F041CD
:103E500004460D4616461F46602D06D13B460122FC
:103E600031462046FFF7B2FE05E03B4601223146CF
:103E70002046FFF7D4FE29462046FFF7D3FF2089CE
:103E800040F007002081BDE8F08130B500240489AE
:103E9000E4B21D0642EA15450D432C43048130BDB2
:103EA0002DE9F04104460D46164698460027434644
:103EB000324629462046FFF7E8FF27894FF6F8707B
:103EC000074047F007074FF68F70074047F070072D
:103ED0002781BDE8F0810000002C01400034014042
:103EE000F0B504460D4616461F463B463246294667
:103EF0002046FFF7CAFF208940F480402081F0BDB2
:103F0000018582827047002202884FF68F731A4023
:103F10000A4302807047F0B500240025002604897A
:103F2000058B068C4FF6F8773C400C434FF6FC4768
:103F30003D4040F201173D434FF6DD773E401F05FF
:103F400042EA17473E43048105830684F0BD002200
:103F5000028B4FF68F731A400A4302837047002288
:103F6000028B48F6FF731A400B0642EA13420283A3
:103F700070470022828B4FF68F731A400A43828368
:103F800070470022828B48F6FF731A400B0642EA04
:103F900013428283704721B1028842F0800202807E
:103FA00004E002884FF67F731A400280704721B107
:103FB000828842F00402828004E082884FF6FB731C
:103FC0001A408280704721B1828842F008028280C4
:103FD00004E082884FF6F7731A408280704721B15F
:103FE000828842F00102828004E082884FF6FE73EC
:103FF0001A40828070470022028B4FF6F7731A40F6
:104000000A43028370470022028B4FF2FF731A406B
:104010000B0642EA1342028370470022828B4FF65E
:10402000F7731A400A43828370470022828B4FF253
:10403000FF731A400B0642EA134282837047002244
:10404000028B4FF6FB731A400A430283704700222B
:10405000028B4FF6FF331A400B0642EA13420283EB
:1040600070470022828B4FF6FB731A400A4382830B
:1040700070470022828B4FF6FF331A400B0642EA4C
:104080001342828370470022028B4FF67F731A40DF
:104090000A43028370470022028BC2F30E020B0612
:1040A00042EA1342028370470022828B4FF67F73ED
:1040B0001A400A43828370470022828BC2F30E02A9
:1040C0000B0642EA1342828370470022028C4FF6AD
:1040D000FD731A400A43028470470022028C4FF697
:1040E000F7731A400A43028470470022028C4FF68D
:1040F000DF731A400B0542EA134202847047002224
:10410000028C4FF67F731A400B0542EA1342028479
:1041100070470022028C4FF6FF531A400B0642EA0A
:104120001342028470470022028C4FF2FF731A4040
:104130000B0642EA1342028470470022028C4DF6BD
:10414000FF731A400B0742EA13420284704730B5EE
:10415000002301248C40A3B2048CDD43ADB22C407B
:104160000484048C02FA01F5ADB22C43048430BD02
:1041700030B5002304248C40A3B2048CDD43ADB2DF
:104180002C400484048C02FA01F5ADB22C43048463
:1041900030BD70B5002300240346184618330125AE
:1041A0008D40ACB2058CE643B6B23540058409B10A
:1041B000082909D103EB61031D6825F070051D6016
:1041C0001D6815431D600CE00D1FADB203EB6503C8
:1041D0001D6825F4E0451D601D68160645EA164574
:1041E0001D6070BD21B1028842F00202028004E02D
:1041F00002884FF6FD731A400280704721B1028891
:1042000042F00402028004E002884FF6FB731A4079
:104210000280704721B1828842F08002828004E0EF
:1042200082884FF67F731A408280704702884FF66B
:10423000F7731A40028002880A430280704782881E
:104240004FF68F731A40828082880A4382807047BB
:1042500002894FF6F8731A40028102890A430281EB
:10426000704702894FF67F731A40028102890A4320
:1042700002817047818470478185704781867047CD
:104280000187704781877047A0F840107047028807
:104290004FF6FF431A40028002880A4302807047AB
:1042A0000146888E70470146088F70470146888F07
:1042B00070470146B1F8400070470146888C70474E
:1042C0000146088D704702460020138A0B4201D038
:1042D000012000E000207047CA430282704730B5D9
:1042E0000246002000230024158A05EA010395896F
:1042F00005EA010413B10CB1012000E0002030BD3B
:10430000CA43028270470000194910B517220A609B
:1043100036224A60174A184B002100EB104442F83D
:104320002140164C491C372900FB0430F5DB10BD39
:104330000120E9E70E4B30B50E4C1968586854F867
:10434000215054F82020491E2A4444F820204FF0E0
:104350003604A0F10100196002D5C3E9004003E072
:104360000028586000DA5C6022F0004030BD000098
:1043700018010020740B0020E119D666CD0D010054
:1043800010B5203AC0F00B80B1E81850203AA0E8F0
:104390001850B1E81850A0E81850BFF4F5AF5FEA24
:1043A000027C24BFB1E81850A0E8185044BF18C9D7
:1043B00018C0BDE810405FEA827C24BF51F8043B7E
:1043C00040F8043B08BF7047D20728BF31F8023BD2
:1043D00048BF11F8012B28BF20F8023B48BF00F866
:1043E000012B7047704770477047754600F028F8FA
:1043F000AE4605006946534620F00700854618B0D2
:1044000020B5FDF76DFDBDE820404FF000064FF0F0
:1044100000074FF000084FF0000B21F00701AC46F9
:10442000ACE8C009ACE8C009ACE8C009ACE8C00918
:104430008D4670470446AFF300802046FBF7C3FE6D
:1044400000487047500C00207047000003494FF0AF
:104450001800ABBE70470000F1FFFFFF260002000E
:10446000284A381074620B5D3C616B716811162A22
:1044700030415A031214177908412A0F580B0A7455
:10448000362715143128362305325C730306194587
:10449000096E3374386517455206172B5175633012
:1044A0003408385D13044254484A35084B64783563
:1044B000234E54412C30303030302C3030303030BE
:1044C0000D0A0000000000000000000000000000D5
:1044D0002353594E2C30300D0A000000000000001C
:1044E00000000000000000000000000000000000CC
:1044F00023434E542C30303030300D0A0000000081
:1045000000000000000000000000000000000000AB
:104510003045000800000020200100006C01000868
:10452000504600082001002090110000880100087A
:104530000000000000000000000000000155534191
:10454000525431544553540D0A0054784E6F5265FD
:10455000706C790D0A0052784E6F744D6174636807
:104560000D0A0052784D617463680D0A00410045E0
:1045700072726F7221004F4B000045520000000024
:10458000000000000000000000000000000000002B
:10459000000000000000000000000000000000001B
:1045A00000000000234E54412C302C31323334357E
:1045B0000D0A0000000000000000000000000000E4
:1045C00000000000000000000000000000000000EB
:1045D000000000000000000000000000A15C0000DE
:1045E000011842311001334310162821A10A280175
:1045F00021A10A280131A10B100231A10B100232B6
:10460000A10CB6A432A10CB6A433A10D79E833A154
:104610000D79E8000000000000000000000000002C
:104620000000000001020304010203040607080958
:104630000204060800A24A04000000000000000076
:104640000102030406070809000000000000000042
:0400000508000131BD
:00000001FF
